{
  "contractName": "LoyaltyToken",
  "abi": [
    {
      "constant": true,
      "inputs": [],
      "name": "totalSupply",
      "outputs": [
        {
          "name": "",
          "type": "uint256"
        }
      ],
      "payable": false,
      "stateMutability": "view",
      "type": "function",
      "signature": "0x18160ddd"
    },
    {
      "inputs": [],
      "payable": false,
      "stateMutability": "nonpayable",
      "type": "constructor",
      "signature": "constructor"
    }
  ],
  "bytecode": "0x608060405234801561001057600080fd5b50620f4240600081905550609e806100296000396000f3fe608060405260043610603f576000357c0100000000000000000000000000000000000000000000000000000000900463ffffffff16806318160ddd146044575b600080fd5b348015604f57600080fd5b506056606c565b6040518082815260200191505060405180910390f35b6000548156fea165627a7a72305820df91613a86605356f656d6721a77a5211fdb7c6e022b2d402dfb6ffd4880d61d0029",
  "source": "pragma solidity ^0.5.0;\n\ncontract LoyaltyToken{\n\t//Constructor\n\t//Set token number of tokens\n\t//Read total number of tokens\n\n\tuint256 public totalSupply;\n\n\tconstructor () public {\n\t\ttotalSupply = 1000000;\n\t}\n}",
  "sourcePath": "/home/ryan/dev/blockchain/loyalty_points/loyaty_points/contracts/LoyaltyToken.sol",
  "compiler": {
    "name": "solc",
    "version": "0.5.0+commit.1d4f565a.Emscripten.clang"
  },
  "schemaVersion": "3.0.1",
  "updatedAt": "2019-03-22T17:11:01.384Z",
  "devdoc": {
    "methods": {}
  },
  "userdoc": {
    "methods": {}
  }
}