{
  "contractName": "loyalty_overview",
  "abi": [
    {
      "constant": true,
      "inputs": [
        {
          "name": "",
          "type": "address"
        }
      ],
      "name": "customers",
      "outputs": [
        {
          "name": "cusAd",
          "type": "address"
        },
        {
          "name": "firstName",
          "type": "string"
        },
        {
          "name": "lastName",
          "type": "string"
        },
        {
          "name": "email",
          "type": "string"
        },
        {
          "name": "isReg",
          "type": "bool"
        }
      ],
      "payable": false,
      "stateMutability": "view",
      "type": "function",
      "signature": "0x336989ae"
    },
    {
      "constant": true,
      "inputs": [
        {
          "name": "",
          "type": "address"
        }
      ],
      "name": "businesses",
      "outputs": [
        {
          "name": "busAd",
          "type": "address"
        },
        {
          "name": "name",
          "type": "string"
        },
        {
          "name": "email",
          "type": "string"
        },
        {
          "name": "isReg",
          "type": "bool"
        },
        {
          "name": "lt",
          "type": "address"
        }
      ],
      "payable": false,
      "stateMutability": "view",
      "type": "function",
      "signature": "0xb31e26e4"
    },
    {
      "inputs": [],
      "payable": false,
      "stateMutability": "nonpayable",
      "type": "constructor",
      "signature": "constructor"
    },
    {
      "constant": false,
      "inputs": [
        {
          "name": "_bName",
          "type": "string"
        },
        {
          "name": "_email",
          "type": "string"
        },
        {
          "name": "_bAd",
          "type": "address"
        },
        {
          "name": "_symbol",
          "type": "string"
        },
        {
          "name": "_decimal",
          "type": "uint8"
        }
      ],
      "name": "regBusiness",
      "outputs": [],
      "payable": false,
      "stateMutability": "nonpayable",
      "type": "function",
      "signature": "0x22de633c"
    },
    {
      "constant": false,
      "inputs": [
        {
          "name": "_firstName",
          "type": "string"
        },
        {
          "name": "_lastName",
          "type": "string"
        },
        {
          "name": "_email",
          "type": "string"
        },
        {
          "name": "_cAd",
          "type": "address"
        }
      ],
      "name": "regCustomer",
      "outputs": [],
      "payable": false,
      "stateMutability": "nonpayable",
      "type": "function",
      "signature": "0x1a716ba8"
    },
    {
      "constant": false,
      "inputs": [
        {
          "name": "_bAd",
          "type": "address"
        }
      ],
      "name": "joinBusiness",
      "outputs": [],
      "payable": false,
      "stateMutability": "nonpayable",
      "type": "function",
      "signature": "0xeaa0a1df"
    },
    {
      "constant": false,
      "inputs": [
        {
          "name": "_bAd",
          "type": "address"
        },
        {
          "name": "_rate",
          "type": "uint256"
        }
      ],
      "name": "connectBusiness",
      "outputs": [],
      "payable": false,
      "stateMutability": "nonpayable",
      "type": "function",
      "signature": "0xb1e10c7b"
    },
    {
      "constant": false,
      "inputs": [
        {
          "name": "from_bus",
          "type": "address"
        },
        {
          "name": "to_bus",
          "type": "address"
        },
        {
          "name": "_points",
          "type": "uint256"
        }
      ],
      "name": "spend",
      "outputs": [],
      "payable": false,
      "stateMutability": "nonpayable",
      "type": "function",
      "signature": "0x791c27ef"
    },
    {
      "constant": false,
      "inputs": [
        {
          "name": "_cAd",
          "type": "address"
        },
        {
          "name": "_points",
          "type": "uint256"
        }
      ],
      "name": "reward",
      "outputs": [],
      "payable": false,
      "stateMutability": "nonpayable",
      "type": "function",
      "signature": "0x21670f22"
    }
  ],
  "bytecode": "0x608060405234801561001057600080fd5b5060008054600160a060020a0319163317905561295f806100326000396000f3fe608060405260043610620000965763ffffffff7c01000000000000000000000000000000000000000000000000000000006000350416631a716ba881146200009b57806321670f22146200027657806322de633c14620002b3578063336989ae1462000497578063791c27ef146200063f578063b1e10c7b1462000686578063b31e26e414620006c3578063eaa0a1df1462000803575b600080fd5b348015620000a857600080fd5b506200027460048036036080811015620000c157600080fd5b810190602081018135640100000000811115620000dd57600080fd5b820183602082011115620000f057600080fd5b803590602001918460018302840111640100000000831117156200011357600080fd5b91908080601f01602080910402602001604051908101604052809392919081815260200183838082843760009201919091525092959493602081019350359150506401000000008111156200016757600080fd5b8201836020820111156200017a57600080fd5b803590602001918460018302840111640100000000831117156200019d57600080fd5b91908080601f0160208091040260200160405190810160405280939291908181526020018383808284376000920191909152509295949360208101935035915050640100000000811115620001f157600080fd5b8201836020820111156200020457600080fd5b803590602001918460018302840111640100000000831117156200022757600080fd5b91908080601f01602080910402602001604051908101604052809392919081815260200183838082843760009201919091525092955050509035600160a060020a031691506200083a9050565b005b3480156200028357600080fd5b5062000274600480360360408110156200029c57600080fd5b50600160a060020a03813516906020013562000a1a565b348015620002c057600080fd5b5062000274600480360360a0811015620002d957600080fd5b810190602081018135640100000000811115620002f557600080fd5b8201836020820111156200030857600080fd5b803590602001918460018302840111640100000000831117156200032b57600080fd5b91908080601f01602080910402602001604051908101604052809392919081815260200183838082843760009201919091525092959493602081019350359150506401000000008111156200037f57600080fd5b8201836020820111156200039257600080fd5b80359060200191846001830284011164010000000083111715620003b557600080fd5b91908080601f0160208091040260200160405190810160405280939291908181526020018383808284376000920191909152509295600160a060020a038535169590949093506040810192506020013590506401000000008111156200041a57600080fd5b8201836020820111156200042d57600080fd5b803590602001918460018302840111640100000000831117156200045057600080fd5b91908080601f0160208091040260200160405190810160405280939291908181526020018383808284376000920191909152509295505050903560ff16915062000d159050565b348015620004a457600080fd5b50620004ce60048036036020811015620004bd57600080fd5b5035600160a060020a0316620010dd565b6040518086600160a060020a0316600160a060020a0316815260200180602001806020018060200185151515158152602001848103845288818151815260200191508051906020019080838360005b83811015620005375781810151838201526020016200051d565b50505050905090810190601f168015620005655780820380516001836020036101000a031916815260200191505b50848103835287518152875160209182019189019080838360005b838110156200059a57818101518382015260200162000580565b50505050905090810190601f168015620005c85780820380516001836020036101000a031916815260200191505b50848103825286518152865160209182019188019080838360005b83811015620005fd578181015183820152602001620005e3565b50505050905090810190601f1680156200062b5780820380516001836020036101000a031916815260200191505b509850505050505050505060405180910390f35b3480156200064c57600080fd5b5062000274600480360360608110156200066557600080fd5b50600160a060020a03813581169160208101359091169060400135620012c7565b3480156200069357600080fd5b506200027460048036036040811015620006ac57600080fd5b50600160a060020a038135169060200135620017c7565b348015620006d057600080fd5b50620006fa60048036036020811015620006e957600080fd5b5035600160a060020a0316620018e8565b60408051600160a060020a03808816825284151560608301528316608082015260a060208083018281528851928401929092528751929391929184019160c085019189019080838360005b838110156200075f57818101518382015260200162000745565b50505050905090810190601f1680156200078d5780820380516001836020036101000a031916815260200191505b50838103825286518152865160209182019188019080838360005b83811015620007c2578181015183820152602001620007a8565b50505050905090810190601f168015620007f05780820380516001836020036101000a031916815260200191505b5097505050505050505060405180910390f35b3480156200081057600080fd5b5062000274600480360360208110156200082957600080fd5b5035600160a060020a031662001a4d565b600054600160a060020a031633146200085257600080fd5b600160a060020a03811660009081526001602052604090206004015460ff1615620008c7576040805160e560020a62461bcd02815260206004820152601360248201527f437573746f6d6572205265676973746572656400000000000000000000000000604482015290519081900360640190fd5b600160a060020a03811660009081526002602052604090206003015460ff16156200093c576040805160e560020a62461bcd02815260206004820152601360248201527f427573696e657373205265676973746572656400000000000000000000000000604482015290519081900360640190fd5b6040805160a081018252600160a060020a038381168083526020808401898152848601899052606085018890526001608086018190526000938452808352959092208451815473ffffffffffffffffffffffffffffffffffffffff191694169390931783559051805193949293620009bc93850192919091019062001b8f565b5060408201518051620009da91600284019160209091019062001b8f565b5060608201518051620009f891600384019160209091019062001b8f565b50608091909101516004909101805460ff191691151591909117905550505050565b3360009081526002602052604090206003015460ff16151562000a85576040805160e560020a62461bcd0281526020600482015260248082015260008051602062002914833981519152604482015260e260020a631bdd5b9d02606482015290519081900360840190fd5b600160a060020a03821660009081526001602052604090206004015460ff16151562000b0a576040805160e560020a62461bcd028152602060048201526024808201527f54686973206973206e6f7420612076616c696420637573746f6d657220616363604482015260e260020a631bdd5b9d02606482015290519081900360840190fd5b336000908152600260209081526040808320600160a060020a038616845260040190915290205460ff16151562000bb1576040805160e560020a62461bcd02815260206004820152602a60248201527f5468697320637573746f6d657220686173206e6f74206a6f696e656420796f7560448201527f7220627573696e65737300000000000000000000000000000000000000000000606482015290519081900360840190fd5b600160a060020a038216600090815260016020908152604080832033845260050190915290205460ff16151562000c58576040805160e560020a62461bcd02815260206004820152602a60248201527f5468697320637573746f6d657220686173206e6f74206a6f696e656420796f7560448201527f7220627573696e65737300000000000000000000000000000000000000000000606482015290519081900360840190fd5b3360008181526002602090815260408083206003015481517f23b872dd0000000000000000000000000000000000000000000000000000000081526004810195909552600160a060020a038781166024870152604486018790529151610100909104909116936323b872dd9360648083019493928390030190829087803b15801562000ce357600080fd5b505af115801562000cf8573d6000803e3d6000fd5b505050506040513d602081101562000d0f57600080fd5b50505050565b600054600160a060020a0316331462000d2d57600080fd5b600160a060020a03831660009081526001602052604090206004015460ff161562000da2576040805160e560020a62461bcd02815260206004820152601360248201527f437573746f6d6572205265676973746572656400000000000000000000000000604482015290519081900360640190fd5b600160a060020a03831660009081526002602052604090206003015460ff161562000e17576040805160e560020a62461bcd02815260206004820152601360248201527f427573696e657373205265676973746572656400000000000000000000000000604482015290519081900360640190fd5b60008386848462000e2762001c14565b600160a060020a038516815260ff82166060820152608060208083018281528651928401929092528551604084019160a08501919088019080838360005b8381101562000e7f57818101518382015260200162000e65565b50505050905090810190601f16801562000ead5780820380516001836020036101000a031916815260200191505b50838103825285518152855160209182019187019080838360005b8381101562000ee257818101518382015260200162000ec8565b50505050905090810190601f16801562000f105780820380516001836020036101000a031916815260200191505b509650505050505050604051809103906000f08015801562000f36573d6000803e3d6000fd5b506040805160a081018252600160a060020a0387811680835260208084018c81528486018c90526001606086018190528785166080870152600093845260028352959092208451815473ffffffffffffffffffffffffffffffffffffffff19169416939093178355905180519596509294919362000fbb939085019291019062001b8f565b506040820151805162000fd991600284019160209091019062001b8f565b5060608201516003918201805460809094015160ff199094169115159190911774ffffffffffffffffffffffffffffffffffffffff001916610100600160a060020a0394851681029190911790915586831660008181526002602090815260408083209095015485517f40c10f1900000000000000000000000000000000000000000000000000000000815260048101949094526127106024850152945193909404909416936340c10f199360448084019491939192918390030190829087803b158015620010a757600080fd5b505af1158015620010bc573d6000803e3d6000fd5b505050506040513d6020811015620010d357600080fd5b5050505050505050565b600160208181526000928352604092839020805481840180548651600261010097831615979097026000190190911695909504601f8101859004850286018501909652858552600160a060020a03909116949193929091908301828280156200118a5780601f106200115e576101008083540402835291602001916200118a565b820191906000526020600020905b8154815290600101906020018083116200116c57829003601f168201915b50505060028085018054604080516020601f6000196101006001871615020190941695909504928301859004850281018501909152818152959695945090925090830182828015620012205780601f10620011f45761010080835404028352916020019162001220565b820191906000526020600020905b8154815290600101906020018083116200120257829003601f168201915b5050505060038301805460408051602060026001851615610100026000190190941693909304601f8101849004840282018401909252818152949594935090830182828015620012b45780601f106200128857610100808354040283529160200191620012b4565b820191906000526020600020905b8154815290600101906020018083116200129657829003601f168201915b5050506004909301549192505060ff1685565b3360009081526001602052604090206004015460ff16151562001343576040805160e560020a62461bcd028152602060048201526024808201527f54686973206973206e6f7420612076616c696420637573746f6d657220616363604482015260e260020a631bdd5b9d02606482015290519081900360840190fd5b600160a060020a03831660009081526002602052604090206003015460ff161515620013b7576040805160e560020a62461bcd0281526020600482015260248082015260008051602062002914833981519152604482015260e260020a631bdd5b9d02606482015290519081900360840190fd5b600160a060020a03821660009081526002602052604090206003015460ff1615156200142b576040805160e560020a62461bcd0281526020600482015260248082015260008051602062002914833981519152604482015260e260020a631bdd5b9d02606482015290519081900360840190fd5b81600160a060020a031683600160a060020a031614156200150557600160a060020a0380831660008181526002602090815260408083206003015481517f23b872dd0000000000000000000000000000000000000000000000000000000081523360048201526024810195909552604485018790529051610100909104909416936323b872dd93606480820194918390030190829087803b158015620014d057600080fd5b505af1158015620014e5573d6000803e3d6000fd5b505050506040513d6020811015620014fc57600080fd5b50620017c29050565b600160a060020a038084166000908152600260209081526040808320938616835260059093019052205460ff161515620015af576040805160e560020a62461bcd02815260206004820152602b60248201527f54686973206973206e6f7420612076616c6964206c696e6b656420627573696e60448201527f657373206163636f756e74000000000000000000000000000000000000000000606482015290519081900360840190fd5b600160a060020a038083166000908152600260209081526040808320938716835260059093019052205460ff16151562001659576040805160e560020a62461bcd02815260206004820152602b60248201527f54686973206973206e6f7420612076616c6964206c696e6b656420627573696e60448201527f657373206163636f756e74000000000000000000000000000000000000000000606482015290519081900360840190fd5b600160a060020a0380841660008181526002602081815260408084208887168552600681018352818520549585529290915260039091015481517f79cc6790000000000000000000000000000000000000000000000000000000008152336004820152602481018790529151939461010090910416926379cc67909260448084019391929182900301818387803b158015620016f457600080fd5b505af115801562001709573d6000803e3d6000fd5b50505050600160a060020a0383811660008181526002602090815260408083206003015481517f40c10f19000000000000000000000000000000000000000000000000000000008152600481019590955287870260248601529051610100909104909416936340c10f1993604480820194918390030190829087803b1580156200179257600080fd5b505af1158015620017a7573d6000803e3d6000fd5b505050506040513d6020811015620017be57600080fd5b5050505b505050565b600160a060020a03821660009081526002602052604090206003015460ff1615156200183b576040805160e560020a62461bcd0281526020600482015260248082015260008051602062002914833981519152604482015260e260020a631bdd5b9d02606482015290519081900360840190fd5b3360009081526002602052604090206003015460ff161515620018a6576040805160e560020a62461bcd0281526020600482015260248082015260008051602062002914833981519152604482015260e260020a631bdd5b9d02606482015290519081900360840190fd5b336000908152600260209081526040808320600160a060020a03959095168352600585018252808320805460ff19166001179055600690940190529190912055565b6002602081815260009283526040928390208054600180830180548751601f60001994831615610100029490940190911696909604918201859004850286018501909652808552600160a060020a0390911694919392830182828015620019935780601f10620019675761010080835404028352916020019162001993565b820191906000526020600020905b8154815290600101906020018083116200197557829003601f168201915b50505060028085018054604080516020601f600019610100600187161502019094169590950492830185900485028101850190915281815295969594509092509083018282801562001a295780601f10620019fd5761010080835404028352916020019162001a29565b820191906000526020600020905b81548152906001019060200180831162001a0b57829003601f168201915b5050506003909301549192505060ff811690600160a060020a036101009091041685565b3360009081526001602052604090206004015460ff16151562001ac9576040805160e560020a62461bcd028152602060048201526024808201527f54686973206973206e6f7420612076616c696420637573746f6d657220616363604482015260e260020a631bdd5b9d02606482015290519081900360840190fd5b600160a060020a03811660009081526002602052604090206003015460ff16151562001b3d576040805160e560020a62461bcd0281526020600482015260248082015260008051602062002914833981519152604482015260e260020a631bdd5b9d02606482015290519081900360840190fd5b600160a060020a0316600081815260026020908152604080832033845260040182528083208054600160ff19918216811790925581845282852095855260059095019092529091208054909216179055565b828054600181600116156101000203166002900490600052602060002090601f016020900481019282601f1062001bd257805160ff191683800117855562001c02565b8280016001018555821562001c02579182015b8281111562001c0257825182559160200191906001019062001be5565b5062001c1092915062001c25565b5090565b604051610cce8062001c4683390190565b62001c4291905b8082111562001c10576000815560010162001c2c565b9056fe60806040523480156200001157600080fd5b5060405162000cce38038062000cce833981018060405260808110156200003757600080fd5b8151602083018051919392830192916401000000008111156200005957600080fd5b820160208101848111156200006d57600080fd5b81516401000000008111828201871017156200008857600080fd5b50509291906020018051640100000000811115620000a557600080fd5b82016020810184811115620000b957600080fd5b8151640100000000811182820187101715620000d457600080fd5b50506020909101519092509050620000f5336401000000006200015a810204565b60048054600160a060020a031916600160a060020a0386161790558251620001259060059060208601906200023f565b5081516200013b9060069060208501906200023f565b506007805460ff191660ff9290921691909117905550620002e4915050565b6200017560038264010000000062000914620001ac82021704565b604051600160a060020a038216907f6ae172837ea30b801fbfcdd4108aa1d5bf8ff775444fd70256b44e6bf3dfc3f690600090a250565b600160a060020a0381161515620001c257600080fd5b620001d7828264010000000062000207810204565b15620001e257600080fd5b600160a060020a0316600090815260209190915260409020805460ff19166001179055565b6000600160a060020a03821615156200021f57600080fd5b50600160a060020a03166000908152602091909152604090205460ff1690565b828054600181600116156101000203166002900490600052602060002090601f016020900481019282601f106200028257805160ff1916838001178555620002b2565b82800160010185558215620002b2579182015b82811115620002b257825182559160200191906001019062000295565b50620002c0929150620002c4565b5090565b620002e191905b80821115620002c05760008155600101620002cb565b90565b6109da80620002f46000396000f3fe6080604052600436106100c45763ffffffff7c0100000000000000000000000000000000000000000000000000000000600035041663095ea7b381146100c957806318160ddd1461011657806323b872dd1461013d578063395093511461018057806340c10f19146101b957806370a08231146101f257806379cc679014610225578063983b2d56146102605780639865027514610293578063a457c2d7146102a8578063a9059cbb146102e1578063aa271e1a1461031a578063dd62ed3e1461034d575b600080fd5b3480156100d557600080fd5b50610102600480360360408110156100ec57600080fd5b50600160a060020a038135169060200135610388565b604080519115158252519081900360200190f35b34801561012257600080fd5b5061012b61039e565b60408051918252519081900360200190f35b34801561014957600080fd5b506101026004803603606081101561016057600080fd5b50600160a060020a038135811691602081013590911690604001356103a4565b34801561018c57600080fd5b50610102600480360360408110156101a357600080fd5b50600160a060020a0381351690602001356103fb565b3480156101c557600080fd5b50610102600480360360408110156101dc57600080fd5b50600160a060020a038135169060200135610437565b3480156101fe57600080fd5b5061012b6004803603602081101561021557600080fd5b5035600160a060020a0316610457565b34801561023157600080fd5b5061025e6004803603604081101561024857600080fd5b50600160a060020a038135169060200135610472565b005b34801561026c57600080fd5b5061025e6004803603602081101561028357600080fd5b5035600160a060020a03166104bb565b34801561029f57600080fd5b5061025e6104db565b3480156102b457600080fd5b50610102600480360360408110156102cb57600080fd5b50600160a060020a0381351690602001356104e6565b3480156102ed57600080fd5b506101026004803603604081101561030457600080fd5b50600160a060020a038135169060200135610522565b34801561032657600080fd5b506101026004803603602081101561033d57600080fd5b5035600160a060020a031661052f565b34801561035957600080fd5b5061012b6004803603604081101561037057600080fd5b50600160a060020a0381358116916020013516610548565b6000610395338484610573565b50600192915050565b60025490565b60006103b18484846105ff565b600160a060020a0384166000908152600160209081526040808320338085529252909120546103f19186916103ec908663ffffffff6106cc16565b610573565b5060019392505050565b336000818152600160209081526040808320600160a060020a038716845290915281205490916103959185906103ec908663ffffffff6106e116565b60006104423361052f565b151561044d57600080fd5b61039583836106fa565b600160a060020a031660009081526020819052604090205490565b61047c82826107a4565b600160a060020a0382166000908152600160209081526040808320338085529252909120546104b79184916103ec908563ffffffff6106cc16565b5050565b6104c43361052f565b15156104cf57600080fd5b6104d88161084d565b50565b6104e433610895565b565b336000818152600160209081526040808320600160a060020a038716845290915281205490916103959185906103ec908663ffffffff6106cc16565b60006103953384846105ff565b600061054260038363ffffffff6108dd16565b92915050565b600160a060020a03918216600090815260016020908152604080832093909416825291909152205490565b600160a060020a038216151561058857600080fd5b600160a060020a038316151561059d57600080fd5b600160a060020a03808416600081815260016020908152604080832094871680845294825291829020859055815185815291517f8c5be1e5ebec7d5bd14f71427d1e84f3dd0314c0f7b2291e5b200ac8c7c3b9259281900390910190a3505050565b600160a060020a038216151561061457600080fd5b600160a060020a03831660009081526020819052604090205461063d908263ffffffff6106cc16565b600160a060020a038085166000908152602081905260408082209390935590841681522054610672908263ffffffff6106e116565b600160a060020a038084166000818152602081815260409182902094909455805185815290519193928716927fddf252ad1be2c89b69c2b068fc378daa952ba7f163c4a11628f55a4df523b3ef92918290030190a3505050565b6000828211156106db57600080fd5b50900390565b6000828201838110156106f357600080fd5b9392505050565b600160a060020a038216151561070f57600080fd5b600254610722908263ffffffff6106e116565b600255600160a060020a03821660009081526020819052604090205461074e908263ffffffff6106e116565b600160a060020a0383166000818152602081815260408083209490945583518581529351929391927fddf252ad1be2c89b69c2b068fc378daa952ba7f163c4a11628f55a4df523b3ef9281900390910190a35050565b600160a060020a03821615156107b957600080fd5b6002546107cc908263ffffffff6106cc16565b600255600160a060020a0382166000908152602081905260409020546107f8908263ffffffff6106cc16565b600160a060020a038316600081815260208181526040808320949094558351858152935191937fddf252ad1be2c89b69c2b068fc378daa952ba7f163c4a11628f55a4df523b3ef929081900390910190a35050565b61085e60038263ffffffff61091416565b604051600160a060020a038216907f6ae172837ea30b801fbfcdd4108aa1d5bf8ff775444fd70256b44e6bf3dfc3f690600090a250565b6108a660038263ffffffff61096216565b604051600160a060020a038216907fe94479a9f7e1952cc78f2d6baab678adc1b772d936c6583def489e524cb6669290600090a250565b6000600160a060020a03821615156108f457600080fd5b50600160a060020a03166000908152602091909152604090205460ff1690565b600160a060020a038116151561092957600080fd5b61093382826108dd565b1561093d57600080fd5b600160a060020a0316600090815260209190915260409020805460ff19166001179055565b600160a060020a038116151561097757600080fd5b61098182826108dd565b151561098c57600080fd5b600160a060020a0316600090815260209190915260409020805460ff1916905556fea165627a7a7230582095983081fd56d593e285de8e4f1983e1366004d3f9bbcbcdfd1e22502ba2bf3f002954686973206973206e6f7420612076616c696420627573696e65737320616363a165627a7a72305820a898d3640ae1eef1602e28f71521047ce72afd3fa3ff9f17abd86a92eb493c0f0029",
  "source": "pragma solidity >=0.4.21 <0.6.0;\n\n\nimport \"./loyalty_points.sol\";\n\n\ncontract loyalty_overview {\n\n\taddress private owner;\n\n\tconstructor() public {\n\t\towner = msg.sender;\n\t}\n\n\t//This is  complex type which will be used to identify a customer\n\n\tstruct Customer {\n        address cusAd;\n        string firstName;\n        string lastName;\n        string email;\n        bool isReg;\n        mapping(address => bool) bus; //Check if customer is part of the loyalty program of the business\n        //mapping(address => address) cont;\n\n\n\t}\n\n\t//This is  complex type which will be used to identify a business\n\n\tstruct Business {\n        address busAd;\n        string name;\n        string email;\n        bool isReg;\n        loyalty_points lt; //crypto token of the business\n        mapping(address => bool) cus;//Check if customer is part of the loyalty program of the business\n        mapping(address => bool) bs;//Check if business has an arrangement with other businesses\n        mapping(address => uint256) rate;//Rate of exchange between the two crypto-tokens\n\t}\n\n\t///each address is mapped to a specific customer or business\n\tmapping(address => Customer) public customers;\n\tmapping(address => Business) public businesses;\n\n\n\n    \n    \t/**\n     * @dev Registers a new business\n     * @param _bName  name of business\n     * @param _email email of business\n     * @param _bAd Address business\n     * @param _symbol of crypto token\n     * @param _decimal precision of token\n     */\n\n\tfunction regBusiness(string memory _bName, string memory _email, address _bAd, string memory _symbol, uint8 _decimal) public {\n\t\trequire(msg.sender == owner);\n\t\trequire(!customers[_bAd].isReg, \"Customer Registered\");\n\t\trequire(!businesses[_bAd].isReg, \"Business Registered\");\n\t\tloyalty_points _newcon = new loyalty_points(_bAd, _bName, _symbol, _decimal); //creates new crypto-token\n\t\tbusinesses[_bAd] = Business(_bAd, _bName , _email, true, _newcon);//creates new business\n\t\tbusinesses[_bAd].lt.mint(_bAd, 10000);//gives tokens for the business\n\n\t}\n\n\t    /**\n     * @dev Registers a new customer\n     * @param _firstName first name of customer\n     * @param _lastName last name of customer\n     * @param _email email of customer\n     * @param _cAd address of customer\n\n     */\n  \n\tfunction regCustomer(string memory _firstName, string memory _lastName, string memory _email, address _cAd) public {\n\t\trequire(msg.sender == owner);\n\t\trequire(!customers[_cAd].isReg, \"Customer Registered\");\n\t\trequire(!businesses[_cAd].isReg, \"Business Registered\");\n\t\tcustomers[_cAd] = Customer(_cAd, _firstName, _lastName, _email, true);\n\t}\n\n\t/**\n     * @dev Customer joins business loyalty program\n     * @param _bAd address of business\n\n     */\n\n\tfunction joinBusiness(address _bAd) public{\n\t\trequire(customers[msg.sender].isReg, \"This is not a valid customer account\");//customer only can call this function\n\t\trequire(businesses[_bAd].isReg, \"This is not a valid business account\");\n\t\tbusinesses[_bAd].cus[msg.sender] = true;//putting customer in business's list and business in the customer's list.\n\t\tcustomers[msg.sender].bus[_bAd] = true;\n\t}\n\n\t/**\n     * @dev Connect two business to be able to exhange tokens between them. Both businesses must call this function and agree to an exchange rate for inter-business tractions to be carried out.\n     * @param _bAd address of business\n\t* @param _rate rate of exchange\n     */\n\n\tfunction connectBusiness(address _bAd, uint256 _rate) public{\n\t\trequire(businesses[_bAd].isReg, \"This is not a valid business account\");\n\t\trequire(businesses[msg.sender].isReg, \"This is not a valid business account\");\n\t\tbusinesses[msg.sender].bs[_bAd] = true;\n\t\tbusinesses[msg.sender].rate[_bAd] = _rate;\n\n\n\t}\n\n\n\t/**\n     * @dev Redeem points. Points are transfered from the customer to the business. This function can only be invoked by a customer\n     * Emits an transfer event.\n     *@param from_bus Address of Business from whose crypto token is to be redeemed\n     *@param to_bus Address of Business to whom the tokens are being sent\n     * @param _points Points to be transfered\n     */\n\n\n\tfunction spend(address from_bus, address to_bus, uint256 _points) public {\n\t\trequire(customers[msg.sender].isReg, \"This is not a valid customer account\");\n\t\trequire(businesses[from_bus].isReg, \"This is not a valid business account\");\n\t\trequire(businesses[to_bus].isReg, \"This is not a valid business account\");\n\t\tif(from_bus==to_bus){\n\t\t\t//transaction is with the same business\n\t\t\tbusinesses[to_bus].lt.transferFrom(msg.sender, to_bus, _points);\n\t\t}\n\t\telse{\n\t\t\t//requires both businesses to have agreed to the terms\n\t\t\trequire(businesses[from_bus].bs[to_bus], \"This is not a valid linked business account\");\n\t\t\trequire(businesses[to_bus].bs[from_bus], \"This is not a valid linked business account\");\n\t\t\tuint256 _r = businesses[from_bus].rate[to_bus];\n\t\t\t//burn from first account(customer) and mint into the reciever's businesses \n\t\t\tbusinesses[from_bus].lt.burnFrom(msg.sender, _points);\n\t\t\tbusinesses[to_bus].lt.mint(to_bus, _r*_points);\n\n\t\t}\n\n\n\t}\n\n\n    /**\n     * @dev Credit points to a customers account. This function can only be invoked by a business\n     * Emits an transfer event.\n     * @param _points Points to be transfered\n     * @param _cAd Address of Customer\n     */\n\n\tfunction reward(address _cAd, uint256 _points) public{\n\t\trequire(businesses[msg.sender].isReg, \"This is not a valid business account\");\n\t\trequire(customers[_cAd].isReg, \"This is not a valid customer account\");\n\t\trequire(businesses[msg.sender].cus[_cAd], \"This customer has not joined your business\" );\n\t\trequire(customers[_cAd].bus[msg.sender], \"This customer has not joined your business\" );\n\t\tbusinesses[msg.sender].lt.transferFrom(msg.sender, _cAd, _points);\n\t}\n\n\n\n\n}",
  "sourcePath": "/home/ryan/dev/blockchain/loyalty_points/contracts/loyalty_overview.sol",
  "compiler": {
    "name": "solc",
    "version": "0.5.0+commit.1d4f565a.Emscripten.clang"
  },
  "schemaVersion": "3.0.5",
  "updatedAt": "2019-04-10T22:07:34.682Z",
  "devdoc": {
    "methods": {
      "connectBusiness(address,uint256)": {
        "details": "Connect two business to be able to exhange tokens between them. Both businesses must call this function and agree to an exchange rate for inter-business tractions to be carried out.",
        "params": {
          "_bAd": "address of business",
          "_rate": "rate of exchange"
        }
      },
      "joinBusiness(address)": {
        "details": "Customer joins business loyalty program",
        "params": {
          "_bAd": "address of business"
        }
      },
      "regBusiness(string,string,address,string,uint8)": {
        "details": "Registers a new business",
        "params": {
          "_bAd": "Address business",
          "_bName": "name of business",
          "_decimal": "precision of token",
          "_email": "email of business",
          "_symbol": "of crypto token"
        }
      },
      "regCustomer(string,string,string,address)": {
        "details": "Registers a new customer",
        "params": {
          "_cAd": "address of customer",
          "_email": "email of customer",
          "_firstName": "first name of customer",
          "_lastName": "last name of customer"
        }
      },
      "reward(address,uint256)": {
        "details": "Credit points to a customers account. This function can only be invoked by a business Emits an transfer event.",
        "params": {
          "_cAd": "Address of Customer",
          "_points": "Points to be transfered"
        }
      },
      "spend(address,address,uint256)": {
        "details": "Redeem points. Points are transfered from the customer to the business. This function can only be invoked by a customer Emits an transfer event. param from_bus Address of Business from whose crypto token is to be redeemed param to_bus Address of Business to whom the tokens are being sent",
        "params": {
          "_points": "Points to be transfered"
        }
      }
    }
  },
  "userdoc": {
    "methods": {}
  }
}