{
  "contractName": "loyalty_points",
  "abi": [
    {
      "constant": false,
      "inputs": [
        {
          "name": "spender",
          "type": "address"
        },
        {
          "name": "value",
          "type": "uint256"
        }
      ],
      "name": "approve",
      "outputs": [
        {
          "name": "",
          "type": "bool"
        }
      ],
      "payable": false,
      "stateMutability": "nonpayable",
      "type": "function"
    },
    {
      "constant": true,
      "inputs": [],
      "name": "totalSupply",
      "outputs": [
        {
          "name": "",
          "type": "uint256"
        }
      ],
      "payable": false,
      "stateMutability": "view",
      "type": "function"
    },
    {
      "constant": false,
      "inputs": [
        {
          "name": "from",
          "type": "address"
        },
        {
          "name": "to",
          "type": "address"
        },
        {
          "name": "value",
          "type": "uint256"
        }
      ],
      "name": "transferFrom",
      "outputs": [
        {
          "name": "",
          "type": "bool"
        }
      ],
      "payable": false,
      "stateMutability": "nonpayable",
      "type": "function"
    },
    {
      "constant": true,
      "inputs": [
        {
          "name": "",
          "type": "address"
        }
      ],
      "name": "customers",
      "outputs": [
        {
          "name": "cusAd",
          "type": "address"
        },
        {
          "name": "firstName",
          "type": "string"
        },
        {
          "name": "lastName",
          "type": "string"
        },
        {
          "name": "email",
          "type": "string"
        },
        {
          "name": "isReg",
          "type": "bool"
        }
      ],
      "payable": false,
      "stateMutability": "view",
      "type": "function"
    },
    {
      "constant": false,
      "inputs": [
        {
          "name": "spender",
          "type": "address"
        },
        {
          "name": "addedValue",
          "type": "uint256"
        }
      ],
      "name": "increaseAllowance",
      "outputs": [
        {
          "name": "",
          "type": "bool"
        }
      ],
      "payable": false,
      "stateMutability": "nonpayable",
      "type": "function"
    },
    {
      "constant": false,
      "inputs": [
        {
          "name": "to",
          "type": "address"
        },
        {
          "name": "value",
          "type": "uint256"
        }
      ],
      "name": "mint",
      "outputs": [
        {
          "name": "",
          "type": "bool"
        }
      ],
      "payable": false,
      "stateMutability": "nonpayable",
      "type": "function"
    },
    {
      "constant": true,
      "inputs": [
        {
          "name": "owner",
          "type": "address"
        }
      ],
      "name": "balanceOf",
      "outputs": [
        {
          "name": "",
          "type": "uint256"
        }
      ],
      "payable": false,
      "stateMutability": "view",
      "type": "function"
    },
    {
      "constant": false,
      "inputs": [
        {
          "name": "account",
          "type": "address"
        }
      ],
      "name": "addMinter",
      "outputs": [],
      "payable": false,
      "stateMutability": "nonpayable",
      "type": "function"
    },
    {
      "constant": false,
      "inputs": [],
      "name": "renounceMinter",
      "outputs": [],
      "payable": false,
      "stateMutability": "nonpayable",
      "type": "function"
    },
    {
      "constant": false,
      "inputs": [
        {
          "name": "spender",
          "type": "address"
        },
        {
          "name": "subtractedValue",
          "type": "uint256"
        }
      ],
      "name": "decreaseAllowance",
      "outputs": [
        {
          "name": "",
          "type": "bool"
        }
      ],
      "payable": false,
      "stateMutability": "nonpayable",
      "type": "function"
    },
    {
      "constant": false,
      "inputs": [
        {
          "name": "to",
          "type": "address"
        },
        {
          "name": "value",
          "type": "uint256"
        }
      ],
      "name": "transfer",
      "outputs": [
        {
          "name": "",
          "type": "bool"
        }
      ],
      "payable": false,
      "stateMutability": "nonpayable",
      "type": "function"
    },
    {
      "constant": true,
      "inputs": [
        {
          "name": "account",
          "type": "address"
        }
      ],
      "name": "isMinter",
      "outputs": [
        {
          "name": "",
          "type": "bool"
        }
      ],
      "payable": false,
      "stateMutability": "view",
      "type": "function"
    },
    {
      "constant": true,
      "inputs": [
        {
          "name": "",
          "type": "address"
        }
      ],
      "name": "businesses",
      "outputs": [
        {
          "name": "busAd",
          "type": "address"
        },
        {
          "name": "name",
          "type": "string"
        },
        {
          "name": "email",
          "type": "string"
        },
        {
          "name": "isReg",
          "type": "bool"
        }
      ],
      "payable": false,
      "stateMutability": "view",
      "type": "function"
    },
    {
      "constant": true,
      "inputs": [
        {
          "name": "owner",
          "type": "address"
        },
        {
          "name": "spender",
          "type": "address"
        }
      ],
      "name": "allowance",
      "outputs": [
        {
          "name": "",
          "type": "uint256"
        }
      ],
      "payable": false,
      "stateMutability": "view",
      "type": "function"
    },
    {
      "inputs": [
        {
          "name": "_name",
          "type": "string"
        },
        {
          "name": "_symbol",
          "type": "string"
        },
        {
          "name": "_decimal",
          "type": "uint8"
        }
      ],
      "payable": false,
      "stateMutability": "nonpayable",
      "type": "constructor"
    },
    {
      "anonymous": false,
      "inputs": [
        {
          "indexed": true,
          "name": "account",
          "type": "address"
        }
      ],
      "name": "MinterAdded",
      "type": "event"
    },
    {
      "anonymous": false,
      "inputs": [
        {
          "indexed": true,
          "name": "account",
          "type": "address"
        }
      ],
      "name": "MinterRemoved",
      "type": "event"
    },
    {
      "anonymous": false,
      "inputs": [
        {
          "indexed": true,
          "name": "from",
          "type": "address"
        },
        {
          "indexed": true,
          "name": "to",
          "type": "address"
        },
        {
          "indexed": false,
          "name": "value",
          "type": "uint256"
        }
      ],
      "name": "Transfer",
      "type": "event"
    },
    {
      "anonymous": false,
      "inputs": [
        {
          "indexed": true,
          "name": "owner",
          "type": "address"
        },
        {
          "indexed": true,
          "name": "spender",
          "type": "address"
        },
        {
          "indexed": false,
          "name": "value",
          "type": "uint256"
        }
      ],
      "name": "Approval",
      "type": "event"
    },
    {
      "constant": false,
      "inputs": [
        {
          "name": "_firstName",
          "type": "string"
        },
        {
          "name": "_lastName",
          "type": "string"
        },
        {
          "name": "_email",
          "type": "string"
        },
        {
          "name": "_cAd",
          "type": "address"
        }
      ],
      "name": "regCustomer",
      "outputs": [],
      "payable": false,
      "stateMutability": "nonpayable",
      "type": "function"
    },
    {
      "constant": false,
      "inputs": [
        {
          "name": "_bName",
          "type": "string"
        },
        {
          "name": "_email",
          "type": "string"
        },
        {
          "name": "_bAd",
          "type": "address"
        }
      ],
      "name": "regBusiness",
      "outputs": [],
      "payable": false,
      "stateMutability": "nonpayable",
      "type": "function"
    },
    {
      "constant": false,
      "inputs": [
        {
          "name": "_points",
          "type": "uint256"
        },
        {
          "name": "_cAd",
          "type": "address"
        }
      ],
      "name": "putPoints",
      "outputs": [],
      "payable": false,
      "stateMutability": "nonpayable",
      "type": "function"
    },
    {
      "constant": false,
      "inputs": [
        {
          "name": "_points",
          "type": "uint256"
        },
        {
          "name": "_bAd",
          "type": "address"
        }
      ],
      "name": "spendPoints",
      "outputs": [],
      "payable": false,
      "stateMutability": "nonpayable",
      "type": "function"
    }
  ],
  "bytecode": "0x60806040523480156200001157600080fd5b5060405162001b8838038062001b88833981018060405260608110156200003757600080fd5b8101908080516401000000008111156200005057600080fd5b820160208101848111156200006457600080fd5b81516401000000008111828201871017156200007f57600080fd5b505092919060200180516401000000008111156200009c57600080fd5b82016020810184811115620000b057600080fd5b8151640100000000811182820187101715620000cb57600080fd5b50506020909101519092509050620000ec3364010000000062000147810204565b60048054600160a060020a031916331790558251620001139060059060208601906200022c565b508151620001299060069060208501906200022c565b506007805460ff191660ff9290921691909117905550620002d19050565b62000162600382640100000000620017496200019982021704565b604051600160a060020a038216907f6ae172837ea30b801fbfcdd4108aa1d5bf8ff775444fd70256b44e6bf3dfc3f690600090a250565b600160a060020a0381161515620001af57600080fd5b620001c48282640100000000620001f4810204565b15620001cf57600080fd5b600160a060020a0316600090815260209190915260409020805460ff19166001179055565b6000600160a060020a03821615156200020c57600080fd5b50600160a060020a03166000908152602091909152604090205460ff1690565b828054600181600116156101000203166002900490600052602060002090601f016020900481019282601f106200026f57805160ff19168380011785556200029f565b828001600101855582156200029f579182015b828111156200029f57825182559160200191906001019062000282565b50620002ad929150620002b1565b5090565b620002ce91905b80821115620002ad5760008155600101620002b8565b90565b6118a780620002e16000396000f3fe6080604052600436106100fb5763ffffffff7c0100000000000000000000000000000000000000000000000000000000600035041663095ea7b381146101005780631420a5a41461014d57806318160ddd146101885780631a716ba8146101af57806323b872dd1461037b578063336989ae146103be578063395093511461055957806339a8c1791461059257806340c10f19146106d757806370a0823114610710578063983b2d56146107435780639865027514610776578063a457c2d71461078b578063a9059cbb146107c4578063aa271e1a146107fd578063b1456a8014610830578063b31e26e414610869578063dd62ed3e1461099e575b600080fd5b34801561010c57600080fd5b506101396004803603604081101561012357600080fd5b50600160a060020a0381351690602001356109d9565b604080519115158252519081900360200190f35b34801561015957600080fd5b506101866004803603604081101561017057600080fd5b5080359060200135600160a060020a03166109ef565b005b34801561019457600080fd5b5061019d610afe565b60408051918252519081900360200190f35b3480156101bb57600080fd5b50610186600480360360808110156101d257600080fd5b8101906020810181356401000000008111156101ed57600080fd5b8201836020820111156101ff57600080fd5b8035906020019184600183028401116401000000008311171561022157600080fd5b91908080601f016020809104026020016040519081016040528093929190818152602001838380828437600092019190915250929594936020810193503591505064010000000081111561027457600080fd5b82018360208201111561028657600080fd5b803590602001918460018302840111640100000000831117156102a857600080fd5b91908080601f01602080910402602001604051908101604052809392919081815260200183838082843760009201919091525092959493602081019350359150506401000000008111156102fb57600080fd5b82018360208201111561030d57600080fd5b8035906020019184600183028401116401000000008311171561032f57600080fd5b91908080601f01602080910402602001604051908101604052809392919081815260200183838082843760009201919091525092955050509035600160a060020a03169150610b059050565b34801561038757600080fd5b506101396004803603606081101561039e57600080fd5b50600160a060020a03813581169160208101359091169060400135610cdd565b3480156103ca57600080fd5b506103f1600480360360208110156103e157600080fd5b5035600160a060020a0316610d34565b6040518086600160a060020a0316600160a060020a0316815260200180602001806020018060200185151515158152602001848103845288818151815260200191508051906020019080838360005b83811015610458578181015183820152602001610440565b50505050905090810190601f1680156104855780820380516001836020036101000a031916815260200191505b50848103835287518152875160209182019189019080838360005b838110156104b85781810151838201526020016104a0565b50505050905090810190601f1680156104e55780820380516001836020036101000a031916815260200191505b50848103825286518152865160209182019188019080838360005b83811015610518578181015183820152602001610500565b50505050905090810190601f1680156105455780820380516001836020036101000a031916815260200191505b509850505050505050505060405180910390f35b34801561056557600080fd5b506101396004803603604081101561057c57600080fd5b50600160a060020a038135169060200135610f13565b34801561059e57600080fd5b50610186600480360360608110156105b557600080fd5b8101906020810181356401000000008111156105d057600080fd5b8201836020820111156105e257600080fd5b8035906020019184600183028401116401000000008311171561060457600080fd5b91908080601f016020809104026020016040519081016040528093929190818152602001838380828437600092019190915250929594936020810193503591505064010000000081111561065757600080fd5b82018360208201111561066957600080fd5b8035906020019184600183028401116401000000008311171561068b57600080fd5b91908080601f01602080910402602001604051908101604052809392919081815260200183838082843760009201919091525092955050509035600160a060020a03169150610f4f9050565b3480156106e357600080fd5b50610139600480360360408110156106fa57600080fd5b50600160a060020a038135169060200135611110565b34801561071c57600080fd5b5061019d6004803603602081101561073357600080fd5b5035600160a060020a0316611130565b34801561074f57600080fd5b506101866004803603602081101561076657600080fd5b5035600160a060020a031661114b565b34801561078257600080fd5b5061018661116b565b34801561079757600080fd5b50610139600480360360408110156107ae57600080fd5b50600160a060020a038135169060200135611176565b3480156107d057600080fd5b50610139600480360360408110156107e757600080fd5b50600160a060020a0381351690602001356111b2565b34801561080957600080fd5b506101396004803603602081101561082057600080fd5b5035600160a060020a03166111bf565b34801561083c57600080fd5b506101866004803603604081101561085357600080fd5b5080359060200135600160a060020a03166111d8565b34801561087557600080fd5b5061089c6004803603602081101561088c57600080fd5b5035600160a060020a03166112d7565b6040518085600160a060020a0316600160a060020a03168152602001806020018060200184151515158152602001838103835286818151815260200191508051906020019080838360005b838110156108ff5781810151838201526020016108e7565b50505050905090810190601f16801561092c5780820380516001836020036101000a031916815260200191505b50838103825285518152855160209182019187019080838360005b8381101561095f578181015183820152602001610947565b50505050905090810190601f16801561098c5780820380516001836020036101000a031916815260200191505b50965050505050505060405180910390f35b3480156109aa57600080fd5b5061019d600480360360408110156109c157600080fd5b50600160a060020a0381358116916020013516611426565b60006109e6338484611451565b50600192915050565b600160a060020a03811660009081526008602052604090206004015460ff161515610a73576040805160e560020a62461bcd028152602060048201526024808201527f54686973206973206e6f7420612076616c696420637573746f6d657220616363604482015260e260020a631bdd5b9d02606482015290519081900360840190fd5b3360009081526009602052604090206003015460ff161515610aee576040805160e560020a62461bcd028152602060048201526024808201527f54686973206973206e6f7420612076616c696420627573696e65737320616363604482015260e260020a631bdd5b9d02606482015290519081900360840190fd5b610af9338284610cdd565b505050565b6002545b90565b600454600160a060020a03163314610b1c57600080fd5b600160a060020a03811660009081526008602052604090206004015460ff1615610b90576040805160e560020a62461bcd02815260206004820152601360248201527f437573746f6d6572205265676973746572656400000000000000000000000000604482015290519081900360640190fd5b600160a060020a03811660009081526009602052604090206003015460ff1615610c04576040805160e560020a62461bcd02815260206004820152601360248201527f427573696e657373205265676973746572656400000000000000000000000000604482015290519081900360640190fd5b6040805160a081018252600160a060020a03838116808352602080840189815284860189905260608501889052600160808601819052600093845260088352959092208451815473ffffffffffffffffffffffffffffffffffffffff191694169390931783559051805193949293610c839385019291909101906117e3565b5060408201518051610c9f9160028401916020909101906117e3565b5060608201518051610cbb9160038401916020909101906117e3565b50608091909101516004909101805460ff191691151591909117905550505050565b6000610cea8484846114dd565b600160a060020a038416600090815260016020908152604080832033808552925290912054610d2a918691610d25908663ffffffff6115aa16565b611451565b5060019392505050565b6008602090815260009182526040918290208054600180830180548651600261010094831615949094026000190190911692909204601f8101869004860283018601909652858252600160a060020a03909216949293909290830182828015610dde5780601f10610db357610100808354040283529160200191610dde565b820191906000526020600020905b815481529060010190602001808311610dc157829003601f168201915b50505060028085018054604080516020601f6000196101006001871615020190941695909504928301859004850281018501909152818152959695945090925090830182828015610e705780601f10610e4557610100808354040283529160200191610e70565b820191906000526020600020905b815481529060010190602001808311610e5357829003601f168201915b5050505060038301805460408051602060026001851615610100026000190190941693909304601f8101849004840282018401909252818152949594935090830182828015610f005780601f10610ed557610100808354040283529160200191610f00565b820191906000526020600020905b815481529060010190602001808311610ee357829003601f168201915b5050506004909301549192505060ff1685565b336000818152600160209081526040808320600160a060020a038716845290915281205490916109e6918590610d25908663ffffffff6115bf16565b600454600160a060020a03163314610f6657600080fd5b600160a060020a03811660009081526008602052604090206004015460ff1615610fda576040805160e560020a62461bcd02815260206004820152601360248201527f437573746f6d6572205265676973746572656400000000000000000000000000604482015290519081900360640190fd5b600160a060020a03811660009081526009602052604090206003015460ff161561104e576040805160e560020a62461bcd02815260206004820152601360248201527f427573696e657373205265676973746572656400000000000000000000000000604482015290519081900360640190fd5b60408051608081018252600160a060020a038381168083526020808401888152848601889052600160608601819052600093845260098352959092208451815473ffffffffffffffffffffffffffffffffffffffff1916941693909317835590518051939492936110c69385019291909101906117e3565b50604082015180516110e29160028401916020909101906117e3565b50606091909101516003909101805460ff191691151591909117905561110a81612710611110565b50505050565b600061111b336111bf565b151561112657600080fd5b6109e683836115d8565b600160a060020a031660009081526020819052604090205490565b611154336111bf565b151561115f57600080fd5b61116881611682565b50565b611174336116ca565b565b336000818152600160209081526040808320600160a060020a038716845290915281205490916109e6918590610d25908663ffffffff6115aa16565b60006109e63384846114dd565b60006111d260038363ffffffff61171216565b92915050565b3360009081526008602052604090206004015460ff161515611253576040805160e560020a62461bcd028152602060048201526024808201527f54686973206973206e6f7420612076616c696420637573746f6d657220616363604482015260e260020a631bdd5b9d02606482015290519081900360840190fd5b600160a060020a03811660009081526009602052604090206003015460ff161515610aee576040805160e560020a62461bcd028152602060048201526024808201527f54686973206973206e6f7420612076616c696420627573696e65737320616363604482015260e260020a631bdd5b9d02606482015290519081900360840190fd5b6009602090815260009182526040918290208054600180830180548651600261010094831615949094026000190190911692909204601f8101869004860283018601909652858252600160a060020a039092169492939092908301828280156113815780601f1061135657610100808354040283529160200191611381565b820191906000526020600020905b81548152906001019060200180831161136457829003601f168201915b50505060028085018054604080516020601f60001961010060018716150201909416959095049283018590048502810185019091528181529596959450909250908301828280156114135780601f106113e857610100808354040283529160200191611413565b820191906000526020600020905b8154815290600101906020018083116113f657829003601f168201915b5050506003909301549192505060ff1684565b600160a060020a03918216600090815260016020908152604080832093909416825291909152205490565b600160a060020a038216151561146657600080fd5b600160a060020a038316151561147b57600080fd5b600160a060020a03808416600081815260016020908152604080832094871680845294825291829020859055815185815291517f8c5be1e5ebec7d5bd14f71427d1e84f3dd0314c0f7b2291e5b200ac8c7c3b9259281900390910190a3505050565b600160a060020a03821615156114f257600080fd5b600160a060020a03831660009081526020819052604090205461151b908263ffffffff6115aa16565b600160a060020a038085166000908152602081905260408082209390935590841681522054611550908263ffffffff6115bf16565b600160a060020a038084166000818152602081815260409182902094909455805185815290519193928716927fddf252ad1be2c89b69c2b068fc378daa952ba7f163c4a11628f55a4df523b3ef92918290030190a3505050565b6000828211156115b957600080fd5b50900390565b6000828201838110156115d157600080fd5b9392505050565b600160a060020a03821615156115ed57600080fd5b600254611600908263ffffffff6115bf16565b600255600160a060020a03821660009081526020819052604090205461162c908263ffffffff6115bf16565b600160a060020a0383166000818152602081815260408083209490945583518581529351929391927fddf252ad1be2c89b69c2b068fc378daa952ba7f163c4a11628f55a4df523b3ef9281900390910190a35050565b61169360038263ffffffff61174916565b604051600160a060020a038216907f6ae172837ea30b801fbfcdd4108aa1d5bf8ff775444fd70256b44e6bf3dfc3f690600090a250565b6116db60038263ffffffff61179716565b604051600160a060020a038216907fe94479a9f7e1952cc78f2d6baab678adc1b772d936c6583def489e524cb6669290600090a250565b6000600160a060020a038216151561172957600080fd5b50600160a060020a03166000908152602091909152604090205460ff1690565b600160a060020a038116151561175e57600080fd5b6117688282611712565b1561177257600080fd5b600160a060020a0316600090815260209190915260409020805460ff19166001179055565b600160a060020a03811615156117ac57600080fd5b6117b68282611712565b15156117c157600080fd5b600160a060020a0316600090815260209190915260409020805460ff19169055565b828054600181600116156101000203166002900490600052602060002090601f016020900481019282601f1061182457805160ff1916838001178555611851565b82800160010185558215611851579182015b82811115611851578251825591602001919060010190611836565b5061185d929150611861565b5090565b610b0291905b8082111561185d576000815560010161186756fea165627a7a72305820d4f9d5051dc0f2482040ed2200d89977f6e8f226391f63660489e9b7d06dacf70029",
  "source": "pragma solidity >=0.4.21 <0.6.0;\n\nimport \"./token/ERC20/ERC20Mintable.sol\";\n\n\n//\t@Title Loyalty Points\n\n\t///@dev Implementation of the logic of Loyalty Points. The loyalty points are ERC20 Mintable tokens\n\ncontract loyalty_points is ERC20Mintable {\n\n\t///Name of the loyalty_program\n\taddress private owner;\n\tstring private name;\n\tstring private symbol;\n\tuint8 private decimal;\n\n\t//the creator of the contarct is the owner\n\tconstructor(string memory _name, string memory _symbol, uint8 _decimal) public {\n\t\towner = msg.sender;\n\t\tname = _name;\n\t\tsymbol = _symbol;\n\t\tdecimal = _decimal;\n\t}\n\n\t//This is  complex type which will be used to identify a customer\n\n\tstruct Customer {\n        address cusAd;\n        string firstName;\n        string lastName;\n        string email;\n        bool isReg;\n\t}\n\n\t//This is  complex type which will be used to identify a business\n\n\tstruct Business {\n        address busAd;\n        string name;\n        string email;\n        bool isReg;\n\n\t}\n\n\t///each adress is mapped to a specific customer or business\n\tmapping(address => Customer) public customers;\n\tmapping(address => Business) public businesses;\n\n    /**\n     * @dev Registers a new customer\n     * @param _firstName first name of customer\n     * @param _lastName last name of customer\n     * @param _email email of customer\n     */\n\n\n\tfunction regCustomer(string memory _firstName, string memory _lastName, string memory _email, address _cAd) public {\n\t\trequire(msg.sender == owner);\n\t\trequire(!customers[_cAd].isReg, \"Customer Registered\");\n\t\trequire(!businesses[_cAd].isReg, \"Business Registered\");\n\t\tcustomers[_cAd] = Customer(_cAd, _firstName, _lastName, _email, true);\n\n\t}\n\n\t   /**\n     * @dev Registers a new business\n     * @param _bName  name of business\n     * @param _email email of business\n     */\n\n\tfunction regBusiness(string memory _bName, string memory _email, address _bAd) public {\n\t\trequire(msg.sender == owner);\n\t\trequire(!customers[_bAd].isReg, \"Customer Registered\");\n\t\trequire(!businesses[_bAd].isReg, \"Business Registered\");\n\t\tbusinesses[_bAd] = Business(_bAd, _bName , _email, true);\n\t\tmint(_bAd, 10000);\n\n\t}\n\n    /**\n     * @dev Credit points to a customers account. This function can only be invoked by a business\n     * Emits an transfer event.\n     * @param _points Points to be transfered\n     * @param _cAd Address of Customer\n     */\n\n\tfunction putPoints (uint256 _points, address _cAd ) public {\n\t\t//Check if sender is a business and reciever is a customer\n\t\trequire(customers[_cAd].isReg, \"This is not a valid customer account\");\n\t\trequire(businesses[msg.sender].isReg, \"This is not a valid business account\");\n\n\t\ttransferFrom(msg.sender, _cAd, _points);\n\t}\n\n/**\n     * @dev Redeem points. Points are transfered from the customer to the business. This function can only be invoked by a customer\n     * Emits an transfer event.\n     * @param _points Points to be transfered\n     * @param _bAd Address of Business\n     */\n\n\tfunction spendPoints (uint256 _points, address _bAd ) public{\n\t\t//Check if sender is a customer and reciever is a business\n\t\trequire(customers[msg.sender].isReg, \"This is not a valid customer account\");\n\t\trequire(businesses[_bAd].isReg, \"This is not a valid business account\");\n\t\ttransferFrom(msg.sender, _bAd, _points);\n\t}\n}",
  "sourcePath": "/home/ryan/dev/blockchain/loyalty_points/contracts/loyalty_points.sol",
  "compiler": {
    "name": "solc",
    "version": "0.5.0+commit.1d4f565a.Emscripten.clang"
  },
  "schemaVersion": "3.0.5",
  "updatedAt": "2019-03-31T14:11:07.434Z",
  "devdoc": {
    "details": "Implementation of the logic of Loyalty Points. The loyalty points are ERC20 Mintable tokens",
    "methods": {
      "allowance(address,address)": {
        "details": "Function to check the amount of tokens that an owner allowed to a spender.",
        "params": {
          "owner": "address The address which owns the funds.",
          "spender": "address The address which will spend the funds."
        },
        "return": "A uint256 specifying the amount of tokens still available for the spender."
      },
      "approve(address,uint256)": {
        "details": "Approve the passed address to spend the specified amount of tokens on behalf of msg.sender. Beware that changing an allowance with this method brings the risk that someone may use both the old and the new allowance by unfortunate transaction ordering. One possible solution to mitigate this race condition is to first reduce the spender's allowance to 0 and set the desired value afterwards: https://github.com/ethereum/EIPs/issues/20#issuecomment-263524729",
        "params": {
          "spender": "The address which will spend the funds.",
          "value": "The amount of tokens to be spent."
        }
      },
      "balanceOf(address)": {
        "details": "Gets the balance of the specified address.",
        "params": {
          "owner": "The address to query the balance of."
        },
        "return": "A uint256 representing the amount owned by the passed address."
      },
      "decreaseAllowance(address,uint256)": {
        "details": "Decrease the amount of tokens that an owner allowed to a spender. approve should be called when _allowed[msg.sender][spender] == 0. To decrement allowed value is better to use this function to avoid 2 calls (and wait until the first transaction is mined) From MonolithDAO Token.sol Emits an Approval event.",
        "params": {
          "spender": "The address which will spend the funds.",
          "subtractedValue": "The amount of tokens to decrease the allowance by."
        }
      },
      "increaseAllowance(address,uint256)": {
        "details": "Increase the amount of tokens that an owner allowed to a spender. approve should be called when _allowed[msg.sender][spender] == 0. To increment allowed value is better to use this function to avoid 2 calls (and wait until the first transaction is mined) From MonolithDAO Token.sol Emits an Approval event.",
        "params": {
          "addedValue": "The amount of tokens to increase the allowance by.",
          "spender": "The address which will spend the funds."
        }
      },
      "mint(address,uint256)": {
        "details": "Function to mint tokens",
        "params": {
          "to": "The address that will receive the minted tokens.",
          "value": "The amount of tokens to mint."
        },
        "return": "A boolean that indicates if the operation was successful."
      },
      "putPoints(uint256,address)": {
        "details": "Credit points to a customers account. This function can only be invoked by a business Emits an transfer event.",
        "params": {
          "_cAd": "Address of Customer",
          "_points": "Points to be transfered"
        }
      },
      "regBusiness(string,string,address)": {
        "details": "Registers a new business",
        "params": {
          "_bName": "name of business",
          "_email": "email of business"
        }
      },
      "regCustomer(string,string,string,address)": {
        "details": "Registers a new customer",
        "params": {
          "_email": "email of customer",
          "_firstName": "first name of customer",
          "_lastName": "last name of customer"
        }
      },
      "spendPoints(uint256,address)": {
        "details": "Redeem points. Points are transfered from the customer to the business. This function can only be invoked by a customer Emits an transfer event.",
        "params": {
          "_bAd": "Address of Business",
          "_points": "Points to be transfered"
        }
      },
      "totalSupply()": {
        "details": "Total number of tokens in existence"
      },
      "transfer(address,uint256)": {
        "details": "Transfer token to a specified address",
        "params": {
          "to": "The address to transfer to.",
          "value": "The amount to be transferred."
        }
      },
      "transferFrom(address,address,uint256)": {
        "details": "Transfer tokens from one address to another. Note that while this function emits an Approval event, this is not required as per the specification, and other compliant implementations may not emit the event.",
        "params": {
          "from": "address The address which you want to send tokens from",
          "to": "address The address which you want to transfer to",
          "value": "uint256 the amount of tokens to be transferred"
        }
      }
    }
  },
  "userdoc": {
    "methods": {}
  }
}